:020000000E28C8
:10000800FE00030EC6000408C7000A08C8007F08DF
:10001800C90021280F28FB20D000FC20D100FD209A
:10002800D200FE20D300FF20D400CA01CB01CC01AE
:10003800CD01CE01CF018301CE284F085306031D01
:10004800A5285208031948280130D202CC010230F1
:1000580052020318312880303428521C3828603066
:10006800C0004008D300A5285203FF3AC00040074B
:10007800403EFF3A013EE03EC1004108D300013056
:10008800C0004008D407A5285108C1005008C00086
:100098000310C10CC00C0310C10CC00C5108C300E4
:1000A8005008C2000310C30CC20C40084206C4002A
:1000B80041084306C50001304405CA000030450523
:1000C800CB004B08C1004A08C0000F30FF000310E6
:1000D800C00DC10DFF0B6B285108C3005008C200AA
:1000E8000310C30CC20C40084204D000410843046A
:1000F800D1005008C0004008D30010305302031844
:100108009B2809304D02031C9B2851081F390838C9
:10011800C0004008D2000530C0004008D40080303C
:10012800C0004008D300CD01CC01CC0AA528510855
:100138007F392038C0004008D4000130C000400892
:10014800CD0753084F020318AE280130C0004008FD
:10015800CF07B0280130CF0252080319B8284C083D
:10016800031DB8284F08B9284F09C0004008CE0021
:100178004F0895004E089800540981000B11490852
:10018800FF0048088A0047088400460E8300FE0ED8
:100198007E0E090006108610081088101F08E33923
:1001A80008389F001F141F081F3940389F009617F2
:1001B80016179917191713153008C1391A38B000CE
:1001C8008E128E1107308E048B168B179F149F1C6E
:1001D800EF280000EB28E1301E02031CF728161355
:1001E80019136300F928161719176400EA28D3347D
:0801F8005A3402347F347F34D5
:02400E00BE3EB4
:00000001FF
